{
  "_format": "hh-sol-artifact-1",
  "contractName": "VRFCoordinator",
  "sourceName": "contracts/vrf/VRFCoordinator.sol",
  "abi": [
    {
      "inputs": [
        {
          "internalType": "address",
          "name": "_link",
          "type": "address"
        }
      ],
      "stateMutability": "nonpayable",
      "type": "constructor"
    },
    {
      "anonymous": false,
      "inputs": [
        {
          "indexed": false,
          "internalType": "bytes32",
          "name": "keyHash",
          "type": "bytes32"
        },
        {
          "indexed": false,
          "internalType": "uint256",
          "name": "fee",
          "type": "uint256"
        }
      ],
      "name": "NewServiceAgreement",
      "type": "event"
    },
    {
      "anonymous": false,
      "inputs": [
        {
          "indexed": false,
          "internalType": "bytes32",
          "name": "keyHash",
          "type": "bytes32"
        },
        {
          "indexed": false,
          "internalType": "uint256",
          "name": "seed",
          "type": "uint256"
        },
        {
          "indexed": true,
          "internalType": "bytes32",
          "name": "jobID",
          "type": "bytes32"
        },
        {
          "indexed": false,
          "internalType": "address",
          "name": "sender",
          "type": "address"
        },
        {
          "indexed": false,
          "internalType": "uint256",
          "name": "fee",
          "type": "uint256"
        }
      ],
      "name": "RandomnessRequest",
      "type": "event"
    },
    {
      "inputs": [
        {
          "internalType": "bytes32",
          "name": "",
          "type": "bytes32"
        }
      ],
      "name": "callbacks",
      "outputs": [
        {
          "internalType": "address",
          "name": "callbackContract",
          "type": "address"
        },
        {
          "internalType": "uint256",
          "name": "randomnessFee",
          "type": "uint256"
        },
        {
          "internalType": "uint256",
          "name": "seed",
          "type": "uint256"
        }
      ],
      "stateMutability": "view",
      "type": "function"
    },
    {
      "inputs": [
        {
          "internalType": "bytes",
          "name": "_proof",
          "type": "bytes"
        }
      ],
      "name": "fulfillRandomnessRequest",
      "outputs": [
        {
          "internalType": "bool",
          "name": "",
          "type": "bool"
        }
      ],
      "stateMutability": "nonpayable",
      "type": "function"
    },
    {
      "inputs": [
        {
          "internalType": "uint256[2]",
          "name": "_publicKey",
          "type": "uint256[2]"
        }
      ],
      "name": "hashOfKey",
      "outputs": [
        {
          "internalType": "bytes32",
          "name": "",
          "type": "bytes32"
        }
      ],
      "stateMutability": "pure",
      "type": "function"
    },
    {
      "inputs": [
        {
          "internalType": "address",
          "name": "_sender",
          "type": "address"
        },
        {
          "internalType": "uint256",
          "name": "_fee",
          "type": "uint256"
        },
        {
          "internalType": "bytes",
          "name": "_data",
          "type": "bytes"
        }
      ],
      "name": "onTokenTransfer",
      "outputs": [],
      "stateMutability": "nonpayable",
      "type": "function"
    },
    {
      "inputs": [
        {
          "internalType": "uint256",
          "name": "_fee",
          "type": "uint256"
        },
        {
          "internalType": "address",
          "name": "_oracle",
          "type": "address"
        },
        {
          "internalType": "uint256[2]",
          "name": "_publicProvingKey",
          "type": "uint256[2]"
        },
        {
          "internalType": "bytes32",
          "name": "_jobID",
          "type": "bytes32"
        }
      ],
      "name": "registerProvingKey",
      "outputs": [],
      "stateMutability": "nonpayable",
      "type": "function"
    },
    {
      "inputs": [
        {
          "internalType": "bytes32",
          "name": "",
          "type": "bytes32"
        }
      ],
      "name": "serviceAgreements",
      "outputs": [
        {
          "internalType": "address",
          "name": "vRFOracle",
          "type": "address"
        },
        {
          "internalType": "bytes32",
          "name": "jobID",
          "type": "bytes32"
        },
        {
          "internalType": "uint256",
          "name": "fee",
          "type": "uint256"
        }
      ],
      "stateMutability": "view",
      "type": "function"
    },
    {
      "inputs": [
        {
          "internalType": "address",
          "name": "_recipient",
          "type": "address"
        },
        {
          "internalType": "uint256",
          "name": "_amount",
          "type": "uint256"
        }
      ],
      "name": "withdraw",
      "outputs": [],
      "stateMutability": "nonpayable",
      "type": "function"
    },
    {
      "inputs": [
        {
          "internalType": "address",
          "name": "",
          "type": "address"
        }
      ],
      "name": "withdrawableTokens",
      "outputs": [
        {
          "internalType": "uint256",
          "name": "",
          "type": "uint256"
        }
      ],
      "stateMutability": "view",
      "type": "function"
    }
  ],
  "bytecode": "0x608060405234801561001057600080fd5b50604051612b2a380380612b2a8339818101604052602081101561003357600080fd5b8101908080519060200190929190505050806000806101000a81548173ffffffffffffffffffffffffffffffffffffffff021916908373ffffffffffffffffffffffffffffffffffffffff16021790555050612a96806100946000396000f3fe608060405234801561001057600080fd5b50600436106100875760003560e01c8063a4c0ed361161005b578063a4c0ed36146102af578063caf70c4a14610394578063d83402091461040d578063f3fef3a31461046f57610087565b80626f6ad01461008c57806321f36509146100e45780635e1c10591461016057806375d3507014610233575b600080fd5b6100ce600480360360208110156100a257600080fd5b81019080803573ffffffffffffffffffffffffffffffffffffffff1690602001909291905050506104bd565b6040518082815260200191505060405180910390f35b610110600480360360208110156100fa57600080fd5b81019080803590602001909291905050506104d5565b604051808473ffffffffffffffffffffffffffffffffffffffff1673ffffffffffffffffffffffffffffffffffffffff168152602001838152602001828152602001935050505060405180910390f35b6102196004803603602081101561017657600080fd5b810190808035906020019064010000000081111561019357600080fd5b8201836020820111156101a557600080fd5b803590602001918460018302840111640100000000831117156101c757600080fd5b91908080601f016020809104026020016040519081016040528093929190818152602001838380828437600081840152601f19601f82011690508083019250505050505050919291929050505061051f565b604051808215151515815260200191505060405180910390f35b61025f6004803603602081101561024957600080fd5b810190808035906020019092919050505061090c565b604051808473ffffffffffffffffffffffffffffffffffffffff1673ffffffffffffffffffffffffffffffffffffffff168152602001838152602001828152602001935050505060405180910390f35b610392600480360360608110156102c557600080fd5b81019080803573ffffffffffffffffffffffffffffffffffffffff169060200190929190803590602001909291908035906020019064010000000081111561030c57600080fd5b82018360208201111561031e57600080fd5b8035906020019184600183028401116401000000008311171561034057600080fd5b91908080601f016020809104026020016040519081016040528093929190818152602001838380828437600081840152601f19601f820116905080830192505050505050509192919290505050610956565b005b6103f7600480360360408110156103aa57600080fd5b8101908080604001906002806020026040519081016040528092919082600260200280828437600081840152601f19601f8201169050808301925050505050509192919290505050610a62565b6040518082815260200191505060405180910390f35b61046d600480360360a081101561042357600080fd5b8101908080359060200190929190803573ffffffffffffffffffffffffffffffffffffffff1690602001909291908060400190919291929080359060200190929190505050610aba565b005b6104bb6004803603604081101561048557600080fd5b81019080803573ffffffffffffffffffffffffffffffffffffffff16906020019092919080359060200190929190505050610d50565b005b60036020528060005260406000206000915090505481565b60016020528060005260406000206000915090508060000160009054906101000a900473ffffffffffffffffffffffffffffffffffffffff16908060010154908060020154905083565b600061052961295e565b600060208401915060e08401519050600061054383610a62565b905060006105518284610f89565b905061055b612980565b600160008381526020019081526020016000206040518060600160405290816000820160009054906101000a900473ffffffffffffffffffffffffffffffffffffffff1673ffffffffffffffffffffffffffffffffffffffff1673ffffffffffffffffffffffffffffffffffffffff168152602001600182015481526020016002820154815250509050600073ffffffffffffffffffffffffffffffffffffffff16816000015173ffffffffffffffffffffffffffffffffffffffff16141561068c576040517f08c379a00000000000000000000000000000000000000000000000000000000081526004018080602001828103825260188152602001807f6e6f20636f72726573706f6e64696e672072657175657374000000000000000081525060200191505060405180910390fd5b600061069788610fc2565b905060006002600086815260200190815260200160002060000160009054906101000a900473ffffffffffffffffffffffffffffffffffffffff16905061072a8360200151600360008473ffffffffffffffffffffffffffffffffffffffff1673ffffffffffffffffffffffffffffffffffffffff1681526020019081526020016000205461118390919063ffffffff16565b600360008373ffffffffffffffffffffffffffffffffffffffff1673ffffffffffffffffffffffffffffffffffffffff1681526020019081526020016000208190555060006060631f1f897f60e01b86856040516024018083815260200182815260200192505050604051602081830303815290604052907bffffffffffffffffffffffffffffffffffffffffffffffffffffffff19166020820180517bffffffffffffffffffffffffffffffffffffffffffffffffffffffff838183161783525050505090506000856000015173ffffffffffffffffffffffffffffffffffffffff16826040518082805190602001908083835b60208310610842578051825260208201915060208101905060208303925061081f565b6001836020036101000a0380198251168184511680821785525050505050509050019150506000604051808303816000865af19150503d80600081146108a4576040519150601f19603f3d011682016040523d82523d6000602084013e6108a9565b606091505b5050905060016000888152602001908152602001600020600080820160006101000a81549073ffffffffffffffffffffffffffffffffffffffff0219169055600182016000905560028201600090555050809a5050505050505050505050919050565b60026020528060005260406000206000915090508060000160009054906101000a900473ffffffffffffffffffffffffffffffffffffffff16908060010154908060020154905083565b6000809054906101000a900473ffffffffffffffffffffffffffffffffffffffff1673ffffffffffffffffffffffffffffffffffffffff163373ffffffffffffffffffffffffffffffffffffffff1614610a18576040517f08c379a00000000000000000000000000000000000000000000000000000000081526004018080602001828103825260138152602001807f4d75737420757365204c494e4b20746f6b656e0000000000000000000000000081525060200191505060405180910390fd5b600080828060200190516040811015610a3057600080fd5b81019080805190602001909291908051906020019092919050505091509150610a5b8282868861120b565b5050505050565b6000816040516020018082600260200280838360005b83811015610a93578082015181840152602081019050610a78565b50505050905001915050604051602081830303815290604052805190602001209050919050565b6000610afc836002806020026040519081016040528092919082600260200280828437600081840152601f19601f820116905080830192505050505050610a62565b905060006002600083815260200190815260200160002060000160009054906101000a900473ffffffffffffffffffffffffffffffffffffffff169050600073ffffffffffffffffffffffffffffffffffffffff168173ffffffffffffffffffffffffffffffffffffffff1614610bdb576040517f08c379a00000000000000000000000000000000000000000000000000000000081526004018080602001828103825260198152602001807f706c656173652072656769737465722061206e6577206b65790000000000000081525060200191505060405180910390fd5b600073ffffffffffffffffffffffffffffffffffffffff168573ffffffffffffffffffffffffffffffffffffffff161415610c7e576040517f08c379a00000000000000000000000000000000000000000000000000000000081526004018080602001828103825260178152602001807f5f6f7261636c65206d757374206e6f742062652030783000000000000000000081525060200191505060405180910390fd5b846002600084815260200190815260200160002060000160006101000a81548173ffffffffffffffffffffffffffffffffffffffff021916908373ffffffffffffffffffffffffffffffffffffffff1602179055508260026000848152602001908152602001600020600101819055508560026000848152602001908152602001600020600201819055507fae189157e0628c1e62315e9179156e1ea10e90e9c15060002f7021e907dc2cfe8287604051808381526020018281526020019250505060405180910390a1505050505050565b8080600360003373ffffffffffffffffffffffffffffffffffffffff1673ffffffffffffffffffffffffffffffffffffffff168152602001908152602001600020541015610e06576040517f08c379a00000000000000000000000000000000000000000000000000000000081526004018080602001828103825260208152602001807f63616e2774207769746864726177206d6f7265207468616e2062616c616e636581525060200191505060405180910390fd5b610e5882600360003373ffffffffffffffffffffffffffffffffffffffff1673ffffffffffffffffffffffffffffffffffffffff1681526020019081526020016000205461155890919063ffffffff16565b600360003373ffffffffffffffffffffffffffffffffffffffff1673ffffffffffffffffffffffffffffffffffffffff168152602001908152602001600020819055506000809054906101000a900473ffffffffffffffffffffffffffffffffffffffff1673ffffffffffffffffffffffffffffffffffffffff1663a9059cbb84846040518363ffffffff1660e01b8152600401808373ffffffffffffffffffffffffffffffffffffffff1673ffffffffffffffffffffffffffffffffffffffff16815260200182815260200192505050602060405180830381600087803b158015610f4357600080fd5b505af1158015610f57573d6000803e3d6000fd5b505050506040513d6020811015610f6d57600080fd5b8101908080519060200190929190505050610f8457fe5b505050565b60008282604051602001808381526020018281526020019250505060405160208183030381529060405280519060200120905092915050565b60006101a082511461103c576040517f08c379a00000000000000000000000000000000000000000000000000000000081526004018080602001828103825260128152602001807f77726f6e672070726f6f66206c656e677468000000000000000000000000000081525060200191505060405180910390fd5b61104461295e565b61104c61295e565b6110546129b7565b600061105e61295e565b61106661295e565b6000888060200190516101a081101561107e57600080fd5b810190809190826040019190826040019190826060018051906020019092919091908260400191908260400180519060200190929190505050839350809750819850829950839a50849b50859c50869d505050505050505061111a8787876000600381106110e857fe5b6020020151886001600381106110fa57fe5b60200201518960026003811061110c57fe5b6020020151898989896115e1565b6003866040516020018083815260200182600260200280838360005b83811015611151578082015181840152602081019050611136565b50505050905001925050506040516020818303038152906040528051906020012060001c975050505050505050919050565b600080828401905083811015611201576040517f08c379a000000000000000000000000000000000000000000000000000000000815260040180806020018281038252601b8152602001807f536166654d6174683a206164646974696f6e206f766572666c6f77000000000081525060200191505060405180910390fd5b8091505092915050565b81846002600082815260200190815260200160002060020154821015611299576040517f08c379a00000000000000000000000000000000000000000000000000000000081526004018080602001828103825260148152602001807f42656c6f7720616772656564207061796d656e7400000000000000000000000081525060200191505060405180910390fd5b60006004600088815260200190815260200160002060008573ffffffffffffffffffffffffffffffffffffffff1673ffffffffffffffffffffffffffffffffffffffff16815260200190815260200160002054905060006112fc8888878561190c565b9050600061130a8983610f89565b9050600073ffffffffffffffffffffffffffffffffffffffff166001600083815260200190815260200160002060000160009054906101000a900473ffffffffffffffffffffffffffffffffffffffff1673ffffffffffffffffffffffffffffffffffffffff161461137857fe5b856001600083815260200190815260200160002060000160006101000a81548173ffffffffffffffffffffffffffffffffffffffff021916908373ffffffffffffffffffffffffffffffffffffffff160217905550866001600083815260200190815260200160002060010181905550816001600083815260200190815260200160002060020181905550600260008a8152602001908152602001600020600101547fd241d78a52145a5d1d1ff002e32ec15cdc395631bcee66246650c2429dfaccaa8a84898b604051808581526020018481526020018373ffffffffffffffffffffffffffffffffffffffff1673ffffffffffffffffffffffffffffffffffffffff16815260200182815260200194505050505060405180910390a26114f96001600460008c815260200190815260200160002060008973ffffffffffffffffffffffffffffffffffffffff1673ffffffffffffffffffffffffffffffffffffffff1681526020019081526020016000205461118390919063ffffffff16565b600460008b815260200190815260200160002060008873ffffffffffffffffffffffffffffffffffffffff1673ffffffffffffffffffffffffffffffffffffffff16815260200190815260200160002081905550505050505050505050565b6000828211156115d0576040517f08c379a000000000000000000000000000000000000000000000000000000000815260040180806020018281038252601e8152602001807f536166654d6174683a207375627472616374696f6e206f766572666c6f77000081525060200191505060405180910390fd5b600082840390508091505092915050565b6115ea89611986565b61165c576040517f08c379a000000000000000000000000000000000000000000000000000000000815260040180806020018281038252601a8152602001807f7075626c6963206b6579206973206e6f74206f6e20637572766500000000000081525060200191505060405180910390fd5b61166588611986565b6116d7576040517f08c379a00000000000000000000000000000000000000000000000000000000081526004018080602001828103825260158152602001807f67616d6d61206973206e6f74206f6e206375727665000000000000000000000081525060200191505060405180910390fd5b6116e083611986565b611752576040517f08c379a000000000000000000000000000000000000000000000000000000000815260040180806020018281038252601d8152602001807f6347616d6d615769746e657373206973206e6f74206f6e20637572766500000081525060200191505060405180910390fd5b61175b82611986565b6117cd576040517f08c379a000000000000000000000000000000000000000000000000000000000815260040180806020018281038252601c8152602001807f73486173685769746e657373206973206e6f74206f6e2063757276650000000081525060200191505060405180910390fd5b6117d9878a88876119f7565b61184b576040517f08c379a000000000000000000000000000000000000000000000000000000000815260040180806020018281038252601a8152602001807f6164647228632a706b2b732a6729e289a05f755769746e65737300000000000081525060200191505060405180910390fd5b61185361295e565b61185d8a87611c2f565b905061186761295e565b611876898b878b868989611cee565b90506000611887838d8d8a86611e92565b9050808a146118fe576040517f08c379a000000000000000000000000000000000000000000000000000000000815260040180806020018281038252600d8152602001807f696e76616c69642070726f6f660000000000000000000000000000000000000081525060200191505060405180910390fd5b505050505050505050505050565b600084848484604051602001808581526020018481526020018373ffffffffffffffffffffffffffffffffffffffff1673ffffffffffffffffffffffffffffffffffffffff1681526020018281526020019450505050506040516020818303038152906040528051906020012060001c9050949350505050565b60007ffffffffffffffffffffffffffffffffffffffffffffffffffffffffefffffc2f806119b057fe5b826001600281106119bd57fe5b6020020151836001600281106119cf57fe5b6020020151096119ef836000600281106119e557fe5b6020020151611fc1565b149050919050565b60008073ffffffffffffffffffffffffffffffffffffffff168273ffffffffffffffffffffffffffffffffffffffff161415611a9b576040517f08c379a000000000000000000000000000000000000000000000000000000000815260040180806020018281038252600b8152602001807f626164207769746e65737300000000000000000000000000000000000000000081525060200191505060405180910390fd5b600080600286600160028110611aad57fe5b602002015181611ab957fe5b0614611ac657601c611ac9565b601b5b905060007ffffffffffffffffffffffffffffffffebaaedce6af48a03bbfd25e8cd036414180611af557fe5b8587600060028110611b0357fe5b6020020151097ffffffffffffffffffffffffffffffffebaaedce6af48a03bbfd25e8cd03641410360001b905060007ffffffffffffffffffffffffffffffffebaaedce6af48a03bbfd25e8cd036414180611b5a57fe5b87600060028110611b6757fe5b6020020151890960001b90506000600183858a600060028110611b8657fe5b602002015160001b8560405160008152602001604052604051808581526020018460ff1660ff1681526020018381526020018281526020019450505050506020604051602081039080840390855afa158015611be6573d6000803e3d6000fd5b5050506020604051035190508573ffffffffffffffffffffffffffffffffffffffff168173ffffffffffffffffffffffffffffffffffffffff1614945050505050949350505050565b611c3761295e565b611c98600184846040516020018084815260200183600260200280838360005b83811015611c72578082015181840152602081019050611c57565b50505050905001828152602001935050505060405160208183030381529060405261204f565b90505b611ca481611986565b611ce857611ce181600060028110611cb857fe5b60200201516040516020018082815260200191505060405160208183030381529060405261204f565b9050611c9b565b92915050565b611cf661295e565b60007ffffffffffffffffffffffffffffffffffffffffffffffffffffffffefffffc2f84600060028110611d2657fe5b602002015188600060028110611d3857fe5b60200201510381611d4557fe5b061415611dba576040517f08c379a000000000000000000000000000000000000000000000000000000000815260040180806020018281038252601e8152602001807f706f696e747320696e2073756d206d7573742062652064697374696e6374000081525060200191505060405180910390fd5b611dc5878988612122565b611e1a576040517f08c379a0000000000000000000000000000000000000000000000000000000008152600401808060200182810382526021815260200180612a1e6021913960400191505060405180910390fd5b611e25848685612122565b611e7a576040517f08c379a0000000000000000000000000000000000000000000000000000000008152600401808060200182810382526022815260200180612a3f6022913960400191505060405180910390fd5b611e858684846122ad565b9050979650505050505050565b6000600286868685876040516020018087815260200186600260200280838360005b83811015611ecf578082015181840152602081019050611eb4565b5050505090500185600260200280838360005b83811015611efd578082015181840152602081019050611ee2565b5050505090500184600260200280838360005b83811015611f2b578082015181840152602081019050611f10565b5050505090500183600260200280838360005b83811015611f59578082015181840152602081019050611f3e565b505050509050018273ffffffffffffffffffffffffffffffffffffffff1673ffffffffffffffffffffffffffffffffffffffff1660601b815260140196505050505050506040516020818303038152906040528051906020012060001c905095945050505050565b6000807ffffffffffffffffffffffffffffffffffffffffffffffffffffffffefffffc2f80611fec57fe5b7ffffffffffffffffffffffffffffffffffffffffffffffffffffffffefffffc2f8061201457fe5b848509840990507ffffffffffffffffffffffffffffffffffffffffffffffffffffffffefffffc2f8061204357fe5b60078208915050919050565b61205761295e565b6120608261242b565b8160006002811061206d57fe5b6020020181815250506120986120938260006002811061208957fe5b6020020151611fc1565b612498565b816001600281106120a557fe5b60200201818152505060016002826001600281106120bf57fe5b6020020151816120cb57fe5b06141561211d57806001600281106120df57fe5b60200201517ffffffffffffffffffffffffffffffffffffffffffffffffffffffffefffffc2f038160016002811061211357fe5b6020020181815250505b919050565b60008083141561213157600080fd5b60008460006002811061214057fe5b6020020151905060008060028760016002811061215957fe5b60200201518161216557fe5b061461217257601c612175565b601b5b905060007ffffffffffffffffffffffffffffffffebaaedce6af48a03bbfd25e8cd0364141806121a157fe5b83870960001b9050600060016000801b848660001b8560405160008152602001604052604051808581526020018460ff1660ff1681526020018381526020018281526020019450505050506020604051602081039080840390855afa15801561220e573d6000803e3d6000fd5b5050506020604051035190506000866040516020018082600260200280838360005b8381101561224b578082015181840152602081019050612230565b505050509050019150506040516020818303038152906040528051906020012060001c90508073ffffffffffffffffffffffffffffffffffffffff168273ffffffffffffffffffffffffffffffffffffffff1614955050505050509392505050565b6122b561295e565b600080600061230a876000600281106122ca57fe5b6020020151886001600281106122dc57fe5b6020020151886000600281106122ee57fe5b60200201518960016002811061230057fe5b60200201516124d2565b80935081945082955050505060017ffffffffffffffffffffffffffffffffffffffffffffffffffffffffefffffc2f8061234057fe5b868309146123b6576040517f08c379a00000000000000000000000000000000000000000000000000000000081526004018080602001828103825260198152602001807f696e765a206d75737420626520696e7665727365206f66207a0000000000000081525060200191505060405180910390fd5b60405180604001604052807ffffffffffffffffffffffffffffffffffffffffffffffffffffffffefffffc2f806123e957fe5b87860981526020017ffffffffffffffffffffffffffffffffffffffffffffffffffffffffefffffc2f8061241957fe5b87850981525093505050509392505050565b6000818051906020012060001c90505b7ffffffffffffffffffffffffffffffffffffffffffffffffffffffffefffffc2f81106124935780604051602001808281526020019150506040516020818303038152906040528051906020012060001c905061243b565b919050565b60006124cb82600260017ffffffffffffffffffffffffffffffffffffffffffffffffffffffffefffffc2f01901c6126a6565b9050919050565b60008060008060006001809150915060007ffffffffffffffffffffffffffffffffffffffffffffffffffffffffefffffc2f8061250b57fe5b897ffffffffffffffffffffffffffffffffffffffffffffffffffffffffefffffc2f038808905060007ffffffffffffffffffffffffffffffffffffffffffffffffffffffffefffffc2f8061255c57fe5b8b7ffffffffffffffffffffffffffffffffffffffffffffffffffffffffefffffc2f038a089050600061259183838585612808565b80925081995050506125a588828e88612872565b80925081995050506125b988828c87612872565b809250819950505060006125cf8d878b85612872565b80925081995050506125e388828686612808565b80925081995050506125f788828e89612872565b8092508199505050808214612692577ffffffffffffffffffffffffffffffffffffffffffffffffffffffffefffffc2f8061262e57fe5b818a0998507ffffffffffffffffffffffffffffffffffffffffffffffffffffffffefffffc2f8061265b57fe5b82890997507ffffffffffffffffffffffffffffffffffffffffffffffffffffffffefffffc2f8061268857fe5b8183099650612696565b8196505b5050505050509450945094915050565b6000806126b16129d9565b6020816000600681106126c057fe5b6020020181815250506020816001600681106126d857fe5b6020020181815250506020816002600681106126f057fe5b602002018181525050848160036006811061270757fe5b602002018181525050838160046006811061271e57fe5b6020020181815250507ffffffffffffffffffffffffffffffffffffffffffffffffffffffffefffffc2f8160056006811061275557fe5b6020020181815250506127666129fb565b60208160c0846005600019fa925060008314156127eb576040517f08c379a00000000000000000000000000000000000000000000000000000000081526004018080602001828103825260128152602001807f6269674d6f64457870206661696c75726521000000000000000000000000000081525060200191505060405180910390fd5b806000600181106127f857fe5b6020020151935050505092915050565b6000807ffffffffffffffffffffffffffffffffffffffffffffffffffffffffefffffc2f8061283357fe5b8487097ffffffffffffffffffffffffffffffffffffffffffffffffffffffffefffffc2f8061285e57fe5b848709809250819350505094509492505050565b60008060007ffffffffffffffffffffffffffffffffffffffffffffffffffffffffefffffc2f8061289f57fe5b878509905060007ffffffffffffffffffffffffffffffffffffffffffffffffffffffffefffffc2f806128ce57fe5b87877ffffffffffffffffffffffffffffffffffffffffffffffffffffffffefffffc2f030990507ffffffffffffffffffffffffffffffffffffffffffffffffffffffffefffffc2f8061291d57fe5b8183087ffffffffffffffffffffffffffffffffffffffffffffffffffffffffefffffc2f8061294857fe5b8689098094508195505050505094509492505050565b6040518060400160405280600290602082028036833780820191505090505090565b6040518060600160405280600073ffffffffffffffffffffffffffffffffffffffff16815260200160008152602001600081525090565b6040518060600160405280600390602082028036833780820191505090505090565b6040518060c00160405280600690602082028036833780820191505090505090565b604051806020016040528060019060208202803683378082019150509050509056fe4669727374206d756c7469706c69636174696f6e20636865636b206661696c65645365636f6e64206d756c7469706c69636174696f6e20636865636b206661696c6564a264697066735822122052f21f2a94e6dd4e08b8810661c40a3a0bde734b89b27a7babfb2a11d40584ba64736f6c63430006060033",
  "linkReferences": {},
  "deployedLinkReferences": {}
}