{
  "_format": "hh-sol-artifact-1",
  "contractName": "Lottery",
  "sourceName": "contracts/Lottery.sol",
  "abi": [
    {
      "inputs": [],
      "stateMutability": "nonpayable",
      "type": "constructor"
    },
    {
      "anonymous": false,
      "inputs": [
        {
          "indexed": true,
          "internalType": "bytes32",
          "name": "id",
          "type": "bytes32"
        }
      ],
      "name": "ChainlinkCancelled",
      "type": "event"
    },
    {
      "anonymous": false,
      "inputs": [
        {
          "indexed": true,
          "internalType": "bytes32",
          "name": "id",
          "type": "bytes32"
        }
      ],
      "name": "ChainlinkFulfilled",
      "type": "event"
    },
    {
      "anonymous": false,
      "inputs": [
        {
          "indexed": true,
          "internalType": "bytes32",
          "name": "id",
          "type": "bytes32"
        }
      ],
      "name": "ChainlinkRequested",
      "type": "event"
    },
    {
      "inputs": [],
      "name": "MINIMUM",
      "outputs": [
        {
          "internalType": "uint256",
          "name": "",
          "type": "uint256"
        }
      ],
      "stateMutability": "view",
      "type": "function"
    },
    {
      "inputs": [],
      "name": "ORACLE_PAYMENT",
      "outputs": [
        {
          "internalType": "uint256",
          "name": "",
          "type": "uint256"
        }
      ],
      "stateMutability": "view",
      "type": "function"
    },
    {
      "inputs": [],
      "name": "duration",
      "outputs": [
        {
          "internalType": "uint256",
          "name": "",
          "type": "uint256"
        }
      ],
      "stateMutability": "view",
      "type": "function"
    },
    {
      "inputs": [],
      "name": "enter",
      "outputs": [],
      "stateMutability": "payable",
      "type": "function"
    },
    {
      "inputs": [
        {
          "internalType": "bytes32",
          "name": "_requestID",
          "type": "bytes32"
        }
      ],
      "name": "fulfill_alarm",
      "outputs": [],
      "stateMutability": "nonpayable",
      "type": "function"
    },
    {
      "inputs": [
        {
          "internalType": "uint256",
          "name": "randomness",
          "type": "uint256"
        }
      ],
      "name": "fulfill_random",
      "outputs": [],
      "stateMutability": "nonpayable",
      "type": "function"
    },
    {
      "inputs": [],
      "name": "governance",
      "outputs": [
        {
          "internalType": "contract governance_interface",
          "name": "",
          "type": "address"
        }
      ],
      "stateMutability": "view",
      "type": "function"
    },
    {
      "inputs": [],
      "name": "lotterry_ID",
      "outputs": [
        {
          "internalType": "uint256",
          "name": "",
          "type": "uint256"
        }
      ],
      "stateMutability": "view",
      "type": "function"
    },
    {
      "inputs": [],
      "name": "lottery_status",
      "outputs": [
        {
          "internalType": "enum Lottery.Lottery_Status",
          "name": "",
          "type": "uint8"
        }
      ],
      "stateMutability": "view",
      "type": "function"
    },
    {
      "inputs": [
        {
          "internalType": "uint256",
          "name": "",
          "type": "uint256"
        }
      ],
      "name": "participant",
      "outputs": [
        {
          "internalType": "address payable",
          "name": "",
          "type": "address"
        }
      ],
      "stateMutability": "view",
      "type": "function"
    },
    {
      "inputs": [],
      "name": "start_Lottery",
      "outputs": [],
      "stateMutability": "nonpayable",
      "type": "function"
    }
  ],
  "bytecode": "0x60806040526001600455662386f26fc10000600a5567016345785d8a0000600b5573c99b3d447826532722e41bc36e644ba3479e4365600c60006101000a81548173ffffffffffffffffffffffffffffffffffffffff021916908373ffffffffffffffffffffffffffffffffffffffff1602179055507f3265626231633161346231653432323961646163323465653062356637383466600d55610e10600e553480156100ab57600080fd5b506100ba6100eb60201b60201c565b60016008819055506001600660006101000a81548160ff021916908360028111156100e157fe5b02179055506101d4565b61018e73c89bd4e1632d3a43cb03aaad5262cbe4038bc57173ffffffffffffffffffffffffffffffffffffffff166338cc48316040518163ffffffff1660e01b815260040160206040518083038186803b15801561014857600080fd5b505afa15801561015c573d6000803e3d6000fd5b505050506040513d602081101561017257600080fd5b810190808051906020019092919050505061019060201b60201c565b565b80600260006101000a81548173ffffffffffffffffffffffffffffffffffffffff021916908373ffffffffffffffffffffffffffffffffffffffff16021790555050565b61174780620001e46000396000f3fe60806040526004361061009c5760003560e01c80635aa6e675116100645780635aa6e675146101e6578063899d49641461023d5780639c484b5c14610254578063a1fd4b341461027f578063c251ebf2146102aa578063e97dcb62146102e55761009c565b80630fb5a6b4146100a15780630ff1c49d146100cc57806322bb34d8146100f75780633db1a6df146101325780634b07954a1461016b575b600080fd5b3480156100ad57600080fd5b506100b66102ef565b6040518082815260200191505060405180910390f35b3480156100d857600080fd5b506100e16102f5565b6040518082815260200191505060405180910390f35b34801561010357600080fd5b506101306004803603602081101561011a57600080fd5b81019080803590602001909291905050506102fb565b005b34801561013e57600080fd5b506101476104ed565b6040518082600281111561015757fe5b60ff16815260200191505060405180910390f35b34801561017757600080fd5b506101a46004803603602081101561018e57600080fd5b8101908080359060200190929190505050610500565b604051808273ffffffffffffffffffffffffffffffffffffffff1673ffffffffffffffffffffffffffffffffffffffff16815260200191505060405180910390f35b3480156101f257600080fd5b506101fb61053c565b604051808273ffffffffffffffffffffffffffffffffffffffff1673ffffffffffffffffffffffffffffffffffffffff16815260200191505060405180910390f35b34801561024957600080fd5b50610252610562565b005b34801561026057600080fd5b506102696106c0565b6040518082815260200191505060405180910390f35b34801561028b57600080fd5b506102946106c6565b6040518082815260200191505060405180910390f35b3480156102b657600080fd5b506102e3600480360360208110156102cd57600080fd5b81019080803590602001909291905050506106cc565b005b6102ed6108d6565b005b600e5481565b60085481565b806005600082815260200190815260200160002060009054906101000a900473ffffffffffffffffffffffffffffffffffffffff1673ffffffffffffffffffffffffffffffffffffffff163373ffffffffffffffffffffffffffffffffffffffff16146103b3576040517f08c379a00000000000000000000000000000000000000000000000000000000081526004018080602001828103825260288152602001806116ea6028913960400191505060405180910390fd5b6005600082815260200190815260200160002060006101000a81549073ffffffffffffffffffffffffffffffffffffffff0219169055807f7cc135e0cebb02c3480ae5d74d377283180a2601f8f644edf7987b009316c63a60405160405180910390a26000600281111561042357fe5b600660009054906101000a900460ff16600281111561043e57fe5b146104b1576040517f08c379a000000000000000000000000000000000000000000000000000000000815260040180806020018281038252601b8152602001807f456e74727920706572696f64206861736e27742073746172746564000000000081525060200191505060405180910390fd5b6002600660006101000a81548160ff021916908360028111156104d057fe5b02179055506001600854016008819055506104e9610975565b5050565b600660009054906101000a900460ff1681565b6007818154811061050d57fe5b906000526020600020016000915054906101000a900473ffffffffffffffffffffffffffffffffffffffff1681565b600960009054906101000a900473ffffffffffffffffffffffffffffffffffffffff1681565b6001600281111561056f57fe5b600660009054906101000a900460ff16600281111561058a57fe5b146105fd576040517f08c379a000000000000000000000000000000000000000000000000000000000815260040180806020018281038252601b8152602001807f43616e277420456e74657220546865204c6f7474657279204e6f77000000000081525060200191505060405180910390fd5b6000600660006101000a81548160ff0219169083600281111561061c57fe5b0217905550610629611550565b61063d600d54306322bb34d860e01b610b0d565b905061068d6040518060400160405280600581526020017f756e74696c000000000000000000000000000000000000000000000000000000815250600e54420183610b3e9092919063ffffffff16565b6106bc600c60009054906101000a900473ffffffffffffffffffffffffffffffffffffffff1682600b54610b71565b5050565b600a5481565b600b5481565b6002808111156106d857fe5b600660009054906101000a900460ff1660028111156106f357fe5b14610749576040517f08c379a00000000000000000000000000000000000000000000000000000000081526004018080602001828103825260228152602001806116a56022913960400191505060405180910390fd5b600081116107bf576040517f08c379a00000000000000000000000000000000000000000000000000000000081526004018080602001828103825260108152602001807f72616e646f6d206e6f7420666f756e640000000000000000000000000000000081525060200191505060405180910390fd5b600060078054905082816107cf57fe5b069050600781815481106107df57fe5b9060005260206000200160009054906101000a900473ffffffffffffffffffffffffffffffffffffffff1673ffffffffffffffffffffffffffffffffffffffff166108fc479081150290604051600060405180830381858888f1935050505015801561084f573d6000803e3d6000fd5b50600067ffffffffffffffff8111801561086857600080fd5b506040519080825280602002602001820160405280156108975781602001602082028036833780820191505090505b50600790805190602001906108ad9291906115bd565b506001600660006101000a81548160ff021916908360028111156108cd57fe5b02179055505050565b600a5434146108e157fe5b600060028111156108ee57fe5b600660009054906101000a900460ff16600281111561090957fe5b1461091057fe5b6007339080600181540180825580915050600190039060005260206000200160009091909190916101000a81548173ffffffffffffffffffffffffffffffffffffffff021916908373ffffffffffffffffffffffffffffffffffffffff160217905550565b60028081111561098157fe5b600660009054906101000a900460ff16600281111561099c57fe5b146109f2576040517f08c379a00000000000000000000000000000000000000000000000000000000081526004018080602001828103825260228152602001806116a56022913960400191505060405180910390fd5b600960009054906101000a900473ffffffffffffffffffffffffffffffffffffffff1673ffffffffffffffffffffffffffffffffffffffff1663360131896040518163ffffffff1660e01b815260040160206040518083038186803b158015610a5a57600080fd5b505afa158015610a6e573d6000803e3d6000fd5b505050506040513d6020811015610a8457600080fd5b810190808051906020019092919050505073ffffffffffffffffffffffffffffffffffffffff1663655b08eb6008546008546040518363ffffffff1660e01b81526004018083815260200182815260200192505050600060405180830381600087803b158015610af357600080fd5b505af1158015610b07573d6000803e3d6000fd5b50505050565b610b15611550565b610b1d611550565b610b3485858584610e29909392919063ffffffff16565b9150509392505050565b610b55828460800151610ed990919063ffffffff16565b610b6c818460800151610efe90919063ffffffff16565b505050565b600030600454604051602001808373ffffffffffffffffffffffffffffffffffffffff1673ffffffffffffffffffffffffffffffffffffffff1660601b815260140182815260200192505050604051602081830303815290604052805190602001209050600454836060018181525050836005600083815260200190815260200160002060006101000a81548173ffffffffffffffffffffffffffffffffffffffff021916908373ffffffffffffffffffffffffffffffffffffffff160217905550807fb5e6e01e79f91267dc17b4e6314d5d4d03593d2ceee0fbb452b750bd70ea5af960405160405180910390a2600260009054906101000a900473ffffffffffffffffffffffffffffffffffffffff1673ffffffffffffffffffffffffffffffffffffffff16634000aea08584610ca987610f2e565b6040518463ffffffff1660e01b8152600401808473ffffffffffffffffffffffffffffffffffffffff1673ffffffffffffffffffffffffffffffffffffffff16815260200183815260200180602001828103825283818151815260200191508051906020019080838360005b83811015610d30578082015181840152602081019050610d15565b50505050905090810190601f168015610d5d5780820380516001836020036101000a031916815260200191505b50945050505050602060405180830381600087803b158015610d7e57600080fd5b505af1158015610d92573d6000803e3d6000fd5b505050506040513d6020811015610da857600080fd5b8101908080519060200190929190505050610e0e576040517f08c379a00000000000000000000000000000000000000000000000000000000081526004018080602001828103825260238152602001806116c76023913960400191505060405180910390fd5b60016004600082825401925050819055508090509392505050565b610e31611550565b610e4185608001516101006110fa565b508385600001818152505082856020019073ffffffffffffffffffffffffffffffffffffffff16908173ffffffffffffffffffffffffffffffffffffffff16815250508185604001907bffffffffffffffffffffffffffffffffffffffffffffffffffffffff191690817bffffffffffffffffffffffffffffffffffffffffffffffffffffffff191681525050849050949350505050565b610ee6826003835161114e565b610ef981836112d390919063ffffffff16565b505050565b67ffffffffffffffff811115610f1d57610f1882826112f5565b610f2a565b610f298260008361114e565b5b5050565b6060634042994660e01b60008084600001518560200151866040015187606001516001896080015160000151604051602401808973ffffffffffffffffffffffffffffffffffffffff1673ffffffffffffffffffffffffffffffffffffffff1681526020018881526020018781526020018673ffffffffffffffffffffffffffffffffffffffff1673ffffffffffffffffffffffffffffffffffffffff168152602001857bffffffffffffffffffffffffffffffffffffffffffffffffffffffff19167bffffffffffffffffffffffffffffffffffffffffffffffffffffffff1916815260200184815260200183815260200180602001828103825283818151815260200191508051906020019080838360005b8381101561105d578082015181840152602081019050611042565b50505050905090810190601f16801561108a5780820380516001836020036101000a031916815260200191505b509950505050505050505050604051602081830303815290604052907bffffffffffffffffffffffffffffffffffffffffffffffffffffffff19166020820180517bffffffffffffffffffffffffffffffffffffffffffffffffffffffff83818316178352505050509050919050565b611102611647565b60006020838161110e57fe5b0614611127576020828161111e57fe5b06602003820191505b81836020018181525050604051808452600081528281016020016040525082905092915050565b60178167ffffffffffffffff16116111855761117f8160058460ff16901b60ff16178461134190919063ffffffff16565b506112ce565b60ff8167ffffffffffffffff16116111db576111b4601860058460ff16901b178461134190919063ffffffff16565b506111d58167ffffffffffffffff166001856113619092919063ffffffff16565b506112cd565b61ffff8167ffffffffffffffff16116112325761120b601960058460ff16901b178461134190919063ffffffff16565b5061122c8167ffffffffffffffff166002856113619092919063ffffffff16565b506112cc565b63ffffffff8167ffffffffffffffff161161128b57611264601a60058460ff16901b178461134190919063ffffffff16565b506112858167ffffffffffffffff166004856113619092919063ffffffff16565b506112cb565b6112a8601b60058460ff16901b178461134190919063ffffffff16565b506112c98167ffffffffffffffff166008856113619092919063ffffffff16565b505b5b5b5b505050565b6112db611647565b6112ed83846000015151848551611383565b905092915050565b61131360026005600660ff16901b178361134190919063ffffffff16565b5061133d82826040516020018082815260200191505060405160208183030381529060405261143c565b5050565b611349611647565b6113598384600001515184611461565b905092915050565b611369611647565b61137a8485600001515185856114af565b90509392505050565b61138b611647565b825182111561139957600080fd5b846020015182850111156113c4576113c38560026113bd8860200151888701611510565b0261152c565b5b6000808651805187602083010193508088870111156113e35787860182525b60208701925050505b6020841061140f57805182526020820191506020810190506020840393506113ec565b60006001856020036101000a03905080198251168184511681811785525050879350505050949350505050565b611449826002835161114e565b61145c81836112d390919063ffffffff16565b505050565b611469611647565b836020015183106114865761148584600286602001510261152c565b5b83518051602085830101848153818614156114a2576001820183525b5050508390509392505050565b6114b7611647565b846020015184830111156114d5576114d48560028685010261152c565b5b60006001836101000a03905085518386820101858319825116178152815185880111156115025784870182525b505085915050949350505050565b60008183111561152257829050611526565b8190505b92915050565b60608260000151905061153f83836110fa565b5061154a83826112d3565b50505050565b6040518060a0016040528060008019168152602001600073ffffffffffffffffffffffffffffffffffffffff16815260200160007bffffffffffffffffffffffffffffffffffffffffffffffffffffffff19168152602001600081526020016115b7611647565b81525090565b828054828255906000526020600020908101928215611636579160200282015b828111156116355782518260006101000a81548173ffffffffffffffffffffffffffffffffffffffff021916908373ffffffffffffffffffffffffffffffffffffffff160217905550916020019190600101906115dd565b5b5090506116439190611661565b5090565b604051806040016040528060608152602001600081525090565b6116a191905b8082111561169d57600081816101000a81549073ffffffffffffffffffffffffffffffffffffffff021916905550600101611667565b5090565b9056fe49742773206e6f742074696d6520746f2073656c656374207468652057696e6e6572756e61626c6520746f207472616e73666572416e6443616c6c20746f206f7261636c65536f75726365206d75737420626520746865206f7261636c65206f66207468652072657175657374a2646970667358221220b9277e48f0653a15c73e37059ba89c1453cbd94e57e2a87150da2896627c94f364736f6c63430006060033",
  "linkReferences": {},
  "deployedLinkReferences": {}
}